:020000020000FC
:020000007FC1BE
:1000200000C008E107BB08E008BB04D000E108BB42
:1000300001D0F9CF0AEF1AEF1A95F1F70A95D9F71F
:02004000089521
:0202FC0091CEA1
:10030000F8940AE101BFB29B01C0F8CFB29BFECFC7
:10031000B99A09E648D034D0302F393C09F408D0D6
:100320003A3C09F422D03B3C11F408B3E7CFF3CFB9
:1003300070E126D0F02F24D0E02FC3E0C7BFE895AE
:100340001FD0002E1DD0102EC1E0C7BFE895E39549
:10035000E395002D28D03FD0012D25D07A9581F747
:10036000E052C5E0C7BFE89508950AD0F02F08D045
:10037000E02F70E2059117D02ED07A95D9F7089525
:10038000B299FECF1AE31A95F1F700E028E006953E
:10039000B299006816E21A95F1F72A95C1F716E2AC
:1003A0001A95F1F70895C19816E21A95F1F728E029
:1003B00000FD03C000C0C19802C0C19A00C016E28F
:1003C0001A95F1F706952A9599F7C19816E21A95AC
:0E03D000F1F7C19A08951FEF1A95F1F70895FD
:00000001FF
