:020000020000FC
:020000007FC1BE
:1000200000C008E107BB08E008BB04D000E108BB42
:1000300001D0F9CF0AEF1AEF1A95F1F70A95D9F71F
:02004000089521
:0202FC0091CEA1
:10030000F8940AE101BF01C068D0B29B01C0F6CFEA
:10031000B29BFECFB99A09E648D034D0302F393C91
:1003200019F40AD001E041D03A3C09F421D03B3C19
:1003300011F408B3E3CFF1CF70E124D0F02F22D035
:10034000E02FC3E0C7BFE8951DD0002E1BD0102EB4
:10035000C1E0C7BFE895E395E395002D26D0012DB8
:1003600024D07A9589F7E052C5E0C7BFE895089593
:1003700009D0F02F07D0E02F70E2059116D07A95C2
:10038000E1F70895B299FECF1AE31A95F1F700E06C
:1003900028E00695B299006816E21A95F1F72A95B9
:1003A000C1F716E21A95F1F70895C19816E21A9569
:1003B000F1F728E000FD03C000C0C19802C0C19A57
:1003C00000C016E21A95F1F706952A9599F7C1989B
:1003D00016E21A95F1F7C19A08958FE30BD041B751
:1003E000401B453018F04C3F08F408958FE302D0CD
:1003F00001BF0895E199FECF8EBBE09A0DB3089539
:00000001FF
