:020000020000FC
:1000000000C0B99AC19AD6D0CBD00AE101BF01C0D5
:1000100085D008E40FD104D009E60CD101D009C085
:100020001FEF1A95F1F70895BC9ADCD009E602D1CA
:10003000FCCFD8D0302F313011F404E6FBD0303172
:1000400019F4D0D0097108BB313121F4CBD00B7138
:10005000026007BB323131F400E006BF03E80FBD98
:1000600002E003BF303211F406B3E4D0303319F4A8
:1000700002E08CD0DFD0313319F403E087D0DAD03E
:10008000383329F402E08CD0D5D0042FD3D03933C3
:1000900029F403E085D0CED0042FCCD0303411F435
:1000A000A1D006BF343671F4A0E6B0E07DE386D07F
:1000B0000D937A95E1F7A0E6B0E07DE30D91BAD01B
:1000C0007A95E1F7353681F4A0E6B0E07FE176D0AD
:1000D0000D937ED00D937A95D1F7A0E6B0E07EE344
:1000E0000D91A8D07A95E1F73A3F11F447D0A2D00C
:1000F0003B3F11F401B79ED03C3F19F48FE3B2D0DF
:1001000099D03D3F19F46ED08FE3B2D03E3F11F449
:1001100069D001BF3F3F09F40FD08BCF8FE3A2D04E
:1001200041B7401B453018F04C3F08F4089582D089
:100130008FE398D001BF089541B76AE04A5074E157
:1001400041BF1CD0015E003808F00095061720F46E
:1001500010D0033008F40DD06DD043957A9581F717
:100160004A50052F01BF8FE383D064D0042F62D0A3
:100170000895542F0395602F0A950895B299FECFE4
:1001800000E003950000B29BFCCF089507B93D9AAB
:10019000369A3699FECF369A3699FECF05B1089534
:1001A00007B9369A3699FECF369A3699FECF44B1C2
:1001B00005B1089503E006B9379A089502E207B938
:1001C000369A3699FECF369A3699FECF05B1089504
:1001D00003E207B9369A3699FECF369A3699FECFA2
:1001E00005B10895B299FECF1AE31A95F1F700E030
:1001F00028E00695B299006816E21A95F1F72A955B
:10020000C1F716E21A95F1F70895B299FECF1AE3F5
:100210001A95F1F700E028E00695B299006816E219
:10022000C49A1A95F1F7C4982A95B1F716E21A956F
:10023000F1F70895C19816E21A95F1F728E000FD4C
:1002400003C000C0C19802C0C19A00C016E21A954E
:10025000F1F706952A9599F7C19816E21A95F1F7E4
:10026000C19A0895E199FECF8EBBE09A0DB308952F
:10027000E199FECF90E09CBB8EBB0DBBE29AE19A68
:020280000895DF
:00000001FF
